:0400000053EF00F0CA
:0600080058823DED10F0EE
:100018005880D8CFE2F0E8CFE3F0E0CFE4F0FACFB1
:10002800E5F0FBCFE6F0E9CFE7F0EACFE8F0E1CF83
:10003800E9F0E2CFEAF0D9CFEBF0DACFECF0F3CF8A
:10004800EDF0F4CFEEF0F6CFEFF0F7CFF0F0F8CF19
:10005800F1F0F5CFF2F0F2C0F5FFF1C0F8FFF0C013
:10006800F7FFEFC0F6FFEEC0F4FFEDC0F3FFECC002
:10007800DAFFEBC0D9FFEAC0E2FFE9C0E1FFE8C060
:10008800EAFFE7C0E9FFE6C0FBFFE5C0FAFFE4C00E
:10009800E0FFE3C0E8FFE2C0D8FF5890100006EF89
:0200A80012F054
:1008000000C60880084C08090809024300020100DC
:10081000C032090400000102020100052400100199
:100820000424020205240600010524010001070535
:10083000810308000209040100020A000000070504
:10084000020240000007058202400000340343001A
:10085000440043002000520053002D0032003300BA
:100860003200200045006D0075006C0061007400CE
:1008700069006F006E002000440065006D006F008D
:1008800034034D006900630072006F00630068006C
:1008900069007000200054006500630068006E006D
:1008A0006F006C006F0067007900200049006E0047
:1008B00063002E001201000202000008D8040A00A2
:0B08C000000101020001040309040014
:1008CC0004013205D8A411D0040130511F0B0009CA
:1008DC00D8A40BD000016B8F030E04013119D8A4DE
:1008EC0002D0010E01D0000E256E04013251D8A4A5
:1008FC001200040130511F0B020AD8A4120004018B
:10090C0034510F0B0009D8B41200040134510F0BF1
:10091C00426E030E42601200200E2818D8A412005A
:10092C0000016B8F040134BF1BD0040134510F0B39
:10093C00426E4250020D740EF324D96E000EF42058
:10094C00DA6EDECF46F0DDCF47F0040134510F0BE9
:10095C00426E4250010D7E0EF324D96E000E1AD059
:10096C00040134510F0B426E4250020D6E0EF324F3
:10097C00D96E000EF420DA6EDECF46F0DDCF47F0F4
:10098C00040134510F0B426E4250010D810EF324C1
:10099C00D96E000EF420DA6EDF50456E45B006D0ED
:1009AC00FB0E4614466EFF0E471404D0040E461080
:1009BC00466E4750476E040134BF0BD004013451CE
:1009CC000F0B426E4250020D740EF324D96E000EC2
:1009DC000AD0040134510F0B426E4250020D6E0EC0
:1009EC00F324D96E000EF420DA6E46C0DEFF47C049
:1009FC00DDFF030E04013119D8A42FD046C0D9FF56
:100A0C0047C0DAFFDFAE1CD0040134BF0BD00401A9
:100A1C0034510F0B426E4250010D7E0EF324D96EF1
:100A2C00000E0AD0040134510F0B426E4250010DDE
:100A3C00810EF324D96E000EF420DA6E0001DF82F1
:100A4C0046C0D9FF47C0DAFF000EDB8446C0D9FF91
:100A5C0047C0DAFF000EDB8E1200040E4618466EFD
:100A6C004750476E46C0D9FF47C0DAFFDFAE1BD0F8
:100A7C0046C0D9FF47C0DAFF7F0EDF1646C0D9FF4C
:100A8C0047C0DAFF000EDB8C000E3B6E050E3A6E93
:100A9C0046C03CF047C03DF0000E3F6E020E3E6E6D
:100AAC00E2EC10F006D046C0D9FF47C0DAFF000ECA
:100ABC00DB8C040E4618466E4750476E45B206D086
:100ACC0046C0D9FF47C0DAFFDFAE31D0040134BFD6
:100ADC000BD0040134510F0B426E4250010D7E0EAF
:100AEC00F324D96E000E0AD0040134510F0B426E60
:100AFC004250010D810EF324D96E000EF420DA6EF3
:100B0C000001DF9246C0D9FF47C0DAFF3B0EDF166B
:100B1C00000E3B6E050E3A6E46C03CF047C03DF0F1
:100B2C00000E3F6E020E3E6EE2EC10F006D046C098
:100B3C00D9FF47C0DAFF3B0EDF16040134510F0B0F
:100B4C00426E4250010D700EF324436E0F0EF420D2
:100B5C00446E43C0D9FF44C0DAFFFE0EDF1612000C
:100B6C00A09A000E6A6E000E686E000E706E710E0A
:100B7C000101406F0F0E0101416F000E0101436F27
:100B8C00000E426F000E0101456F020E446FECEC3B
:100B9C0011F0160E6F6E9F0E6B6E7B0E696E000E53
:100BAC000101486F0B0E0101486501D010D0010105
:100BBC004851040D000EF324D96E040EF420DA6EA5
:100BCC00DE6ADE6ADE6ADD6A0101482BEBD76D8CCA
:100BDC00000E6E6E6D986D9C6896000E00016B6F2A
:100BEC00000E0001636F000E0001656F000E646F54
:100BFC0068B6F2D7010E1F6E010E1E6E000E1D6E32
:100C0C00000E1C6E000E246E000E0101486F020EC9
:100C1C000101486501D033D001014851020D6E0E1F
:100C2C00F324D96E000EF420DA6E000EDE6E000E88
:100C3C00DD6E01014851020D740EF324D96E000EC5
:100C4C00F420DA6E000EDE6E000EDD6E01014851EE
:100C5C00010D810EF324D96E000EF420DA6E000E15
:100C6C00DF6E01014851010D7E0EF324D96E000E8A
:100C7C00F420DA6E000EDF6E0101482BC8D7080E87
:100C8C0000016E6F040E00016F6F160E706E040E75
:100C9C000401036F300E026F080E0401016F040E85
:100CAC000401006F0401008F000E2C6E000E016E0B
:100CBC00000E026E000E036E000E046E000E1B6E14
:100CCC00000E286E1200A09A000E6A6E000E686E5E
:100CDC00000E706E710E2D6E0F0E2E6E000E306E9D
:100CEC00000E2F6E000E326E020E316E66EC12F09C
:100CFC00160E6F6E9F0E6B6E7B0E696E000E356E50
:100D0C000B0E356401D00ED03550040D000EF324BB
:100D1C00D96E040EF420DA6EDE6ADE6ADE6ADD6AF3
:100D2C00352AEED76D8C000E6E6E6D986D9C6896A4
:100D3C00000E00016B6F000E0001636F000E0001CE
:100D4C00656F000E646F68B6F2D7010E1F6E010E50
:100D5C001E6E000E1D6E000E1C6E000E246E000E1C
:100D6C00356E020E356401D02ED03550020D6E0E4C
:100D7C00F324D96E000EF420DA6E000EDE6E000E37
:100D8C00DD6E3550020D740EF324D96E000EF42076
:100D9C00DA6E000EDE6E000EDD6E3550010D810E2A
:100DAC00F324D96E000EF420DA6E000EDF6E35508F
:100DBC00010D7E0EF324D96E000EF420DA6E000EB7
:100DCC00DF6E352ACED7080E00016E6F040E0001BF
:100DDC006F6F160E706E040E0401036F300E026FEF
:100DEC00080E0401016F040E0401006F0401008F52
:100DFC00000E2C6E000E016E000E026E000E036EC5
:100E0C00000E046E000E1B6E000E286E120020EEFB
:100E1C0001F01150D9261250DA22DF503F6E3F50AC
:100E2C000001645D000E6559D8A064C03FF03F50CE
:100E3C000001645F000E655B000E3E6E12D03E50EA
:100E4C00010D380EF324D96E040EF420DA6E60C056
:100E5C00E1FF61C0E2FFDFCFE7FF0001604B612BD8
:100E6C003E2A3F503E5CD8A0EAD7000164510001F5
:100E7C006511D8B432D020EE01F00F50D9261050A5
:100E8C00DA22080EDF6E20EE02F00F50D926105039
:100E9C00DA22380EDE6E040EDD6E11C0D9FF12C0E0
:100EAC00DAFFDFBC0DD00FC0D9FF10C0DAFF480E3F
:100EBC00DF6E0FC0D9FF10C0DAFF000EDB8E120000
:100ECC000FC0D9FF10C0DAFF080EDF6E0FC0D9FFBC
:100EDC0010C0DAFF000EDB8E120020EE01F00F5076
:100EEC00D9261050DA22080EDF6E20EE02F00F50D9
:100EFC00D9261050DA22300EDE6E040EDD6E0FC0D5
:100F0C00D9FF10C0DAFF040EDF6E0FC0D9FF10C07E
:100F1C00DAFF000EDB8E0001665100016711D8B4B8
:100F2C000ED020EE66F001D80AD00500FA6EDE5025
:100F3C00FD6EDE50FE6EF850FF6EFA50120000018E
:100F4C00639F2050D8A41200A8EC0DF01200800E64
:100F5C0004013019D8A41200C00E00016B6F89D0A7
:100F6C00B40E0001686F080E0001696F000E0001DD
:100F7C006D6F120E6C6F120004013251D8A444D064
:100F8C0004013251020D070EF324F66E080EF42004
:100F9C00F76E0900F5CF68F00A00F5CF69F0020E84
:100FAC00000168252D6E000E000169212E6E2DC0EA
:100FBC00F6FF2EC0F7FFF86A070EF76403D008009F
:100FCC00F55005D0F6CFE1FFF7CFE2FFE750000177
:100FDC006C6F030E000168252D6E000E0001692157
:100FEC002E6E2DC0F6FF2EC0F7FFF86A070EF764C1
:100FFC0003D00800F55005D0F6CFE1FFF7CFE2FFA4
:10100C00E75000016D6F1200000E00016B6F1200B3
:10101C00030E0401326125D004013251020D010E80
:10102C00F324F66E080EF420F76E0900F5CF68F085
:10103C000A00F5CF69F068C0F6FF69C0F7FFF86ADF
:10104C00070EF76403D00800F55005D0F6CFE1FF8A
:10105C00F7CFE2FFE7502D6E2D5000016C6F6D6BDA
:10106C001200000E00016B6F1200000E00016B6F7E
:10107C00120004013351010AD8B472D7030AD8B450
:10108C007BD7010AD8B4C4D7F0D70101486F01014E
:10109C0040510101D8B408D001014851020D6E0E27
:1010AC00F324D96E000E07D001014851020D740EC5
:1010BC00F324D96E000EF420DA6EDECF49F1DDCFC9
:1010CC004AF10101495101014A11D8A407D0000E7F
:1010DC000101406F000E0101416F1200010120EE71
:1010EC0002F04951D9264A51DA2241C1DEFF42C1F0
:1010FC00DDFF010120EE01F04951D9264A51DA22D7
:10110C0043C1DFFF49C1D9FF4AC1DAFF400EDF16E8
:10111C0049C1D9FF4AC1DAFF000EDB8649C1D9FFAC
:10112C004AC1DAFF000EDB8E010140510101D8B437
:10113C001ED001014851020D6E0EF324D96E000E23
:10114C00F420DA6EDECF44F1DDCF45F1040E01015F
:10115C0044190101466F010145510101476F01011D
:10116C004851020D6E0EF324D96E000E1DD00101F4
:10117C004851020D740EF324D96E000EF420DA6E71
:10118C00DECF44F1DDCF45F1040E0101441901011C
:10119C00466F010145510101476F01014851020D94
:1011AC00740EF324D96E000EF420DA6E46C1DEFF05
:1011BC0047C1DDFF49C140F14AC141F11200A09A7B
:1011CC000B500C10D8B408D00BC0D9FF0CC0DAFFF0
:1011DC00DFAE02D0A08A1200030E1A18D8A402D0D7
:1011EC00000E1A6E1A50D8A402D0A08A1200020E59
:1011FC001A18D8A416D0010E0101406F000E01017F
:10120C00416F000E0101426F000E0101436F020E8F
:10121C004BEC08F040C10BF041C10CF0030E1A6E00
:10122C0064D01A04D8A461D0400E196404D0400EC6
:10123C0001014C6F02D019C04CF101014C51000856
:10124C001924196E000E056E050E066E4CC14BF17D
:10125C001850D8B411D026D008C0D9FF09C0DAFF75
:10126C0005C0E1FF06C0E2FFDFCFE7FF054A062A13
:10127C00084A092A01014B0701014B510101D8B45D
:10128C0016D0EAD708C0D9FF09C0DAFF05C0E1FFC4
:10129C0006C0E2FFDFCFE7FF054A062A084A092A03
:1012AC0001014B0701014B510101D8A4EBD7195097
:1012BC00D8A409D0400E01014C19D8A402D0020EBA
:1012CC0001D0030E1A6E010E0101406F000E0101D8
:1012DC00416F050E0101426F4CC143F1020E4BEC04
:1012EC0008F040C10BF041C10CF0A08A1200280498
:1012FC00D8B46DBA06D0000E686E69806988020E8B
:10130C00286E68B469A403D068941FEC12F06DA227
:10131C0002D0A19A120068B069A006D069EC06F060
:10132C00A08A040E286E689068B869A802D050ECA8
:10133C0012F068AC1AD069AC0ED0000E3B6E730E76
:10134C003A6E000E3C6E000E3D6E000E3F6E010EAE
:10135C003E6EE2EC10F0689C8CEC12F02150D8A49C
:10136C0021062150D8B4A8EC0DF068BA69AA02D0B5
:10137C008DEC11F068B269A20FD07F0E3B6E3A680B
:10138C00000E3C6E000E3D6E000E3F6E010E3E6E6A
:10139C00E2EC10F0000E6A6E040E286002D0A19AE6
:1013AC00120069A639D0000E496E030E496401D0B3
:1013BC0033D068A631D06CCF2BF02B30E832E8322A
:1013CC000F0B236E68962BB407D02350010D7E0EA5
:1013DC00F324D96E000E06D02350010D810EF32498
:1013EC00D96E000EF420DA6E0001DF702350D8A401
:1013FC0003D067EC0FF00ED0000E3B6E720E3A6EFF
:10140C002B0E3C6E000E3D6E000E3F6E000E3E6EBF
:10141C00E2EC10F0492AC9D7A19A1200356E2D5072
:10142C00D8B407D03550020D6E0EF324D96E000ED1
:10143C0006D03550020D740EF324D96E000EF42034
:10144C00DA6EDECF36F0DDCF37F036503710D8A459
:10145C0005D0000E2D6E000E2E6E120020EE02F046
:10146C003650D9263750DA222EC0DEFF2FC0DDFFD2
:10147C0020EE01F03650D9263750DA2230C0DFFF8B
:10148C0036C0D9FF37C0DAFF400EDF1636C0D9FFA1
:10149C0037C0DAFF000EDB8636C0D9FF37C0DAFF63
:1014AC00000EDB8E2D50D8B418D03550020D6E0EB8
:1014BC00F324D96E000EF420DA6EDECF31F0DDCFDE
:1014CC0032F0040E3118336E3250346E3550020D3A
:1014DC006E0EF324D96E000E17D03550020D740E1B
:1014EC00F324D96E000EF420DA6EDECF31F0DDCFAE
:1014FC0032F0040E3118336E3250346E3550020D0A
:10150C00740EF324D96E000EF420DA6E33C0DEFFB5
:10151C0034C0DDFF36C02DF037C02EF012006EC087
:10152C00D9FF6FC0DAFF0001000EDFBC010E3E6E6A
:10153C00040E00016E1900016E6F00016F51000165
:10154C006F6F080E2818D8A40BD0040132517F0BF2
:10155C006E6E6E50D8B402D0100E01D0040E286EF0
:10156C002604D8A43BD0000120EE02F06E51D926FF
:10157C006F51DA22380EDE6E040EDD6E74EC0CF058
:10158C00020E2718D8A40DD06EC0D9FF6FC0DAFF99
:10159C00040EDF6E6EC0D9FF6FC0DAFF000EDB8E5B
:1015AC0012003E50D8A40DD06EC0D9FF6FC0DAFF28
:1015BC00480EDF6E6EC0D9FF6FC0DAFF000EDB8EF7
:1015CC0012006EC0D9FF6FC0DAFF080EDF6E6EC05E
:1015DC00D9FF6FC0DAFF000EDB8E1200000163AF83
:1015EC0016D00001665100016711D8B40ED020EE60
:1015FC0066F001D80AD00500FA6EDE50FD6EDE50A2
:10160C00FE6EF850FF6EFA5012000001639F000E40
:10161C00266E12006D9800016BBF39D0000163AFCC
:10162C000BD0020E266E1C50D8B418EC0FF0000E26
:10163C001E6E000E1F6E120020EE01F00F50D92608
:10164C001050DA22080EDF6E20EE02F00F50D92671
:10165C001050DA22300EDE6E040EDD6E0FC0D9FF94
:10166C0010C0DAFF0C0EDF6E0FC0D9FF10C0DAFF0E
:10167C00000EDB8E6EC0D9FF6FC0DAFF040EDF6E7A
:10168C006EC0D9FF6FC0DAFF000EDB8E12000401B2
:10169C0030AF10D0010E266E1D50D8B418EC0FF0E0
:1016AC00000E1E6E000E1F6E2050D8A41200A8EC67
:1016BC000DF01200020E266E20EE01F00F50D9260E
:1016CC001050DA22080EDF6E20EE02F00F50D926F1
:1016DC001050DA22300EDE6E040EDD6E0FC0D9FF14
:1016EC0010C0DAFF040EDF6E0FC0D9FF10C0DAFF96
:1016FC00000EDB8E000E1E6E000E1F6E2050D8A446
:10170C001200A8EC0DF0120004013039E832030B82
:10171C000009D8A412004FD000016B8F080E286E60
:10172C001200ADEC07F0120003EC0CF012002C0EC2
:10173C000001686F000E0001696F00016B81010EE2
:10174C0000016C6F00016B8F120068EC0EF0120040
:10175C0066EC04F0120004013451010D290EF3243F
:10176C000001686F000EF4200001696F00016B81AD
:10177C00010E00016C6F00016B8F120000016B8F6A
:10178C0004013451010D290EF324D96E000EF420FE
:10179C00DA6E32C4DFFF1200000E3B6E020E3A6EA0
:1017AC00000E3C6E000E3D6E000E3F6E000E3E6E47
:1017BC00E2EC10F0120004013151000AD8B4C5D784
:1017CC00010AD8B4C5D7020AD8B4C2D7060AD8B40D
:1017DC00A3D7030AD8B4A5D7010AD8B4DDD70F0A0A
:1017EC00D8B4A5D7010AD8B49FD7030AD8B4B3D7B5
:1017FC00010AD8B4C3D7070A120000016B8F710E0F
:10180C002D6E0F0E2E6E000E306E000E2F6E000E13
:10181C00326E020E316E66EC12F0000E2D6E040E5E
:10182C002E6E000E306E000E2F6E000E326E300ECD
:10183C00316E66EC12F06D8C000E426E020E42643C
:10184C0001D016D04250010D810EF324D96E000E3A
:10185C00F420DA6E000EDF6E4250010D7E0EF32482
:10186C00D96E000EF420DA6E000EDF6E422AE6D737
:10187C00290E2D6E000E2E6E000E306E000E2F6E89
:10188C00000E326E020E316E66EC12F06D9C080E7C
:10189C0000016E6F040E00016F6F000E116E040ECE
:1018AC00126E11C00FF012C010F032C42CF02C507C
:1018BC00D8A403D0100E286E1200000E3B6E010E41
:1018CC003A6E2C0E3C6E000E3D6E000E3F6E010EFD
:1018DC003E6EE2EC10F0200E286E1200080E2D6EFB
:1018EC0000016D5111E1080E00016C5DD8B00CD0F7
:1018FC006CC02DF02750D8A402D0010E04D02704C0
:10190C00D8A402D0020E276E2D5000016C5F000E81
:10191C006D5B000120EE01F06E51D9266F51DA2279
:10192C002DC0DFFF380E0D6E040E0E6E00016BA184
:10193C001CD03AD068C0F6FF69C0F7FFF86A0DC03A
:10194C00D9FF0EC0DAFF070EF76403D00800F5507C
:10195C0005D0F6CFE1FFF7CFE2FFE750DF6E0001D5
:10196C00684B692B0D4A0E2A2D062D50D8B4120047
:10197C00E1D768C0F6FF69C0F7FFF86A0DC0D9FF60
:10198C000EC0DAFF070EF76403D00800F55005D03F
:10199C00F6CFE1FFF7CFE2FFE750DF6E0001684BB7
:1019AC00692B0D4A0E2A2D062D50D8B41200E1D702
:1019BC00040130511F0BE806D8A412000401303981
:1019CC00E832030BE806D8A4120004013451D8B451
:1019DC0045D004013405D8A4120040D0D30E000128
:1019EC00686F000E0001696F000E00016D6F080E2C
:1019FC006C6F00016B8100016B8F1200D30E000124
:101A0C00686F000E0001696F00016B8F120036C405
:101A1C0064F037C465F0C90E0001606F000E000160
:101A2C00616F7C0E0001666F220E0001676F000172
:101A3C00638F1200DB0E0001686F000E0001696FEE
:101A4C00000E00016D6F070E6C6FC10E00016B6F05
:101A5C00120032C417F000016B8F120004013151D7
:101A6C00000AD8B4BBD7010AD8B4C8D7210AD8B455
:101A7C00CED7010AD8B4DED7030AD8A41200E9D70E
:101A8C00200E286001D012006DB212001350D8A4A1
:101A9C0013D0000E01014B6F010E01014C6F400E73
:101AAC0001014D6F0AEC0EF0156E1550D8B404D030
:101ABC00010E136E000E146E1350D8A4ACA212D0EB
:101ACC001450010D000EF324D96E010EF420DA6EC1
:101ADC00DF50C5EC12F0142A15501418D8A402D0FB
:101AEC00000E136E9EAA19D03F0E166016D016501B
:101AFC00010D890EF324D96E000EF420DA6E9BECE6
:101B0C0012F0DF6E162A1650010D890EF324D96ED1
:101B1C00000EF420DA6E000EDF6E1A50D8A40FD02F
:101B2C001650D8B40CD0890E0101406F000E010183
:101B3C00416F16C042F17CEC12F0000E166EE5EC13
:101B4C0008F012001F50D8A41200010E1F6E1E5078
:101B5C00D8A41200010E1E6E020E2618D8A416D0A0
:101B6C00000120EE01F06E51D9266F51DA22000EE1
:101B7C00DF6E6EC0D9FF6FC0DAFF480EDF6E6EC02D
:101B8C00D9FF6FC0DAFF000EDB8E12002604D8A43A
:101B9C001200000E226E20EE01F01150D9261250C8
:101BAC00DA22080EDF6E20EE02F01150D926125008
:101BBC00DA22300EDE6E040EDD6E11C0D9FF12C0BB
:101BCC00DAFF040EDF6E11C0D9FF12C0DAFF000E6F
:101BDC00DB8E010E226E20EE01F00F50D926105034
:101BEC00DA22080EDF6E20EE02F00F50D9261050CC
:101BFC00DA22300EDE6E040EDD6E0FC0D9FF10C07F
:101C0C00DAFF800EDF6E1200000E0001886F0001FB
:101C1C00865100018711D8B407D086C0D9FF87C080
:101C2C00DAFF0001DFBE4BD0000120EE01F086513F
:101C3C00D9268751DA2201014D51DE5CD8B00AD089
:101C4C00000120EE01F08651D9268751DA22DF50AF
:101C5C0001014D6F000E0001886F18D000018851F2
:101C6C00010D400EF324D96E050EF420DA6E00013E
:101C7C008851010DF35001014B25E16EF450010127
:101C8C004C21E26EDFCFE7FF0001882B01014D51A3
:101C9C000001885DD8A0E2D7000E0101406F400E14
:101CAC000101416F050E0101426F400E0101436FAE
:101CBC00020E4BEC08F040C186F041C187F00001E8
:101CCC0088511200000E0401386F000E0401396FA8
:101CDC003BD000016B8F2504D8A442D0040138837B
:101CEC003FD000016B8F3CD000016B8F040134BFDF
:101CFC000BD0040134510F0B2D6E2D50020D740EB0
:101D0C00F324D96E000E0AD0040134510F0B2D6E42
:101D1C002D50020D6E0EF324D96E000EF420DA6EE7
:101D2C00DECF2EF0DDCF2FF02EC0D9FF2FC0DAFF83
:101D3C00DFAE16D02EC0D9FF2FC0DAFFDFA410D033
:101D4C00010E0401386F0CD0040130511F0B000A36
:101D5C00D8B4BFD7010AD8B4C4D7030AD8B4C4D7EF
:101D6C0000016BAF1200380E0001686F040E000109
:101D7C00696F00016B81020E00016C6F1200000E86
:101D8C00276E000E206E000E1D6E000E1C6E000ED7
:101D9C00226E000E266E6EC0D9FF6FC0DAFF7F0E6A
:101DAC00DF16040E00016E1900016E6F00016F51F9
:101DBC0000016F6F6EC0D9FF6FC0DAFF7F0EDF16A8
:101DCC00040E00016E1900016E6F00016F510001CD
:101DDC006F6F0FC0D9FF10C0DAFF7F0EDF16000E39
:101DEC0000016B6F000E00016D6F000E6C6F000E2A
:101DFC000001636F000E0001656F000E646F8AECCA
:101E0C000BF0000E3B6E030E3A6E000E3C6E000E95
:101E1C003D6E000E3F6E000E3E6EE2EC10F010ECCC
:101E2C000BF01200000E1D6E000E1C6E020E26181A
:101E3C00D8A41FD020EE01F00F50D9261050DA2272
:101E4C00080EDF6E20EE02F00F50D9261050DA2269
:101E5C00380EDE6E040EDD6E0FC0D9FF10C0DAFF37
:101E6C00480EDF6E0FC0D9FF10C0DAFF000EDB8EFC
:101E7C00120000016C510401365D00016D5104012A
:101E8C003759D8B004D036C46CF037C46DF074EC4C
:101E9C000CF0000120EE02F06E51D9266F51DA22BF
:101EAC00380EDE6E040EDD6E6EC0D9FF6FC0DAFF29
:101EBC00480EDF6E6EC0D9FF6FC0DAFF000EDB8EEE
:101ECC0012002D0E216E2BC048F0FD0E4816D8A422
:101EDC003BD02BC048F0D89048323F0E48164850A3
:101EEC00040D000EF324116E040EF420126E11C0BA
:101EFC000FF012C010F0040E0F180F6E1050106E71
:101F0C0011C0D9FF12C0DAFFDF30E8320F0B0D0A17
:101F1C00D8A417D0300E2D6E040E2E6E20EE02F0CB
:101F2C001150D9261250DA22DECF2FF0DDCF30F04F
:101F3C00000E326E080E316E6BEC11F0C5EC0EF02B
:101F4C00120010EC11F012002B50FD0B040AD8A457
:101F5C00120095EC0AF01200326E000E336E040E75
:101F6C00346E2D502E6E2F6AD8902E362F3632505E
:101F7C00306E316AD89030363136D89030363136B2
:101F8C002E5030262F503122D89030363136D89002
:101F9C0030363136305033263150342233C0D9FFED
:101FAC0034C0DAFFDF9E2D50D8A407D03250020D7A
:101FBC00740EF324D96E000E06D03250020D6E0E44
:101FCC00F324D96E000EF420DA6E33C0DEFF34C079
:101FDC00DDFF33C0D9FF34C0DAFFDF9C20EE04F004
:101FEC003350D9263450DA22DF8C1200000E356EB5
:101FFC00000E366E000E376E000E386E31503210F9
:10200C0033103410D8B42AD0010E396E06D0D890C3
:10201C003136323633363436392A34AEF8D7D89096
:10202C00353636363736383631502D5C32502E58E0
:10203C0033502F5834503058D8A009D031502D5E21
:10204C0032502E5A33502F5A3450305A3580D89043
:10205C003432333232323132392EE1D735C02DF0B1
:10206C0036C02EF037C02FF038C030F0120006000A
:10207C00FACF4AF0FBCF4BF0E9CF4CF0EACF4DF062
:10208C00E1CF4EF0E2CF4FF0D9CF50F0DACF51F094
:10209C00F3CF52F0F4CF53F0F6CF54F0F7CF55F016
:1020AC00F8CF56F0F5CF57F07DEC09F057C0F5FF9F
:1020BC0056C0F8FF55C0F7FF54C0F6FF53C0F4FFED
:1020CC0052C0F3FF51C0DAFF50C0D9FF4FC0E2FF3E
:1020DC004EC0E1FF4DC0EAFF4CC0E9FF4BC0FBFF17
:1020EC004AC0FAFF58921100800E0001DB6F250EDA
:1020FC00DC6F000EDD6F000EDE6F000E0001DF6F77
:10210C00000E0001E06F080E0001E16F000E0001EF
:10211C00886F1A0E356E010ECEEC11F01E0E356E58
:10212C00020ECEEC11F0000E2D6E400E2E6E050E32
:10213C002F6E400E306E020E14EC0AF02DC086F09D
:10214C002EC087F0000E0B6E000E0C6E000E1A6E79
:10215C0012007AEC10F0000E0001DF6F080E000187
:10216C00E16F000E0001E06F800E0001DB6F250EA9
:10217C00DC6F000EDD6F000EDE6FA7EC12F0000EB0
:10218C00396E3F0E396401D00CD03950010D890ED7
:10219C00F324D96E000EF420DA6E000EDF6E392AAD
:1021AC00F0D7000E166E000E156E000E0001846F37
:1021BC00000E0001856F120006D0AFEC10F012007B
:1021CC00DEEC0CF012003AC040F03BC041F0415044
:1021DC00000AD8B404D07F0AD8A4120018D04050FA
:1021EC00010AD8B4EAD7030AD8B41200010AD8B449
:1021FC00E7D7060AD8B41200770AD8B41200010A3D
:10220C00D8B41200070AD8B41200010A12004050C8
:10221C00FF0A1200020E2618D8A403D00DEC07F00A
:10222C001200000E266E2250D8A41FD020EE01F012
:10223C000F50D9261050DA22080EDF6E20EE02F075
:10224C000F50D9261050DA22300EDE6E040EDD6EE1
:10225C000FC0D9FF10C0DAFF0C0EDF6E0FC0D9FF14
:10226C0010C0DAFF000EDB8E1200000E226E120080
:10227C00C9C0DBF0CAC0DCF0CBC0DDF0CCC0DEF0F6
:10228C00D80E2D6EB80E2E6E050E2F6E000E306E03
:10229C00DBC031F0DCC032F0DDC033F0DEC034F036
:1022AC00FCEC0FF0FF0E2D243A6EFF0E2E203B6E31
:1022BC00FF0E2F203C6EFF0E30203D6E3AC0AFFF5C
:1022CC003BC0B0FFA7EC12F012002FC035F030C0AD
:1022DC0036F02DC033F02EC034F010D035C0D9FFFD
:1022EC0036C0DAFFDF50376E354A362A33C0D9FF95
:1022FC0034C0DAFF37C0DFFF334A342A3106D8A0A6
:10230C0032063128EBE13228D8B41200E7D770A09E
:10231C001DD011C0D9FF12C0DAFF800EDE18D8A470
:10232C0014D06EC0D9FF6FC0DAFF840EDE18D8A4AB
:10233C000CD011C0D9FF12C0DAFF0C0EDF6E11C029
:10234C00D9FF12C0DAFF000EDB8E7090689A120073
:10235C000101406F13D0D388D38AD38CD392D390FE
:10236C0092680F0E936E800E946E000E896EF00EB6
:10237C008A6E800E8B6E0F0EC1121200010140513D
:10238C00000AD8B4E8D7010AD8B41200030A120024
:10239C00386E35A405D0000E2D6E3850B2EC0FF00F
:1023AC0035A205D0010E2D6E3850B2EC0FF038501E
:1023BC00010D700EF324366E0F0EF420376E36C0FE
:1023CC00D9FF37C0DAFF35C0DFFF120040C146F13C
:1023DC0041C147F109D046C1D9FF47C1DAFF42C11B
:1023EC00DFFF0101464B472B01014407D8A04507ED
:1023FC0001014429F0E101014529D8B41200EBD7C1
:10240C0001EE00F0400EEE6AE806FDE100EE60F031
:10241C00820EEE6AE806FDE100EE01F02C0EEE6A8B
:10242C00E806FDE158905892000EF86E0001B2EFEC
:10243C0012F0000E246E000E3B6E740E3A6E000EFF
:10244C003C6E000E3D6E000E3F6E000E3E6EE2ECDA
:10245C0010F06D92699401D0689468B4FDD7000EA9
:10246C001B6E12002850D8A41200000E6D6E000EC8
:10247C00696E160E6F6E9F0E6B6E7B0E696ED08E34
:10248C00A28AA08AF28E01D06D866DA6FDD7010EB0
:10249C00286E1200698468986D82010E246E000EFD
:1024AC001B6E000E3B6E750E3A6E000E3C6E000EEF
:1024BC003D6E000E3F6E000E3E6EE2EC10F0120010
:1024CC002DC033F02EC034F008D033C0D9FF34C047
:1024DC00DAFF2FC0DFFF334A342A3106D8A0320688
:1024EC003128F3E13228D8B41200EFD7A09A1A5051
:1024FC00D8A40AD040C108F041C109F042C119F07A
:10250C00010E186E010E1A6EA08A1200010E012621
:10251C00000E0222032204222450D8A412001B2AEB
:10252C001B50D8A412001B681200ABA205D0AB98AC
:10253C00AECF40F1AB8802D0AECF40F1010140519B
:10254C001200AC9CAC98AC8AAB9CAB88948E949CDF
:10255C00AB8EAECF2DF01200000EAEEC11F0B6EC3F
:10256C0005F038EC12F0BCEC12F0FDD7200E286010
:10257C0001D012006DB2120046EC0DF012000101F8
:08258C00406F40C1ADFF1200D9
:020000040020DA
:08000000FFFFFFFFFFFFFFFF00
:020000040030CA
:0E000000320E3F1EFF8181FF0FC00FE00F4048
:00000001FF
