:0400000053EF00F0CA
:06000800588245ED10F0E6
:100018005880D8CFC1F0E8CFC2F0E0CFC3F0FACF14
:10002800C4F0FBCFC5F0E9CFC6F0EACFC7F0E1CF07
:10003800C8F0E2CFC9F0D9CFCAF0DACFCBF0F3CF0E
:10004800CCF0F4CFCDF0F6CFCEF0F7CFCFF0F8CF9D
:10005800D0F0F5CFD1F0D1C0F5FFD0C0F8FFCFC0B8
:10006800F7FFCEC0F6FFCDC0F4FFCCC0F3FFCBC086
:10007800DAFFCAC0D9FFC9C0E2FFC8C0E1FFC7C0E4
:10008800EAFFC6C0E9FFC5C0FBFFC4C0FAFFC3C092
:10009800E0FFC2C0E8FFC1C0D8FF5890100071EF60
:0200A80011F055
:1008000000C60880084C08090809024300020100DC
:10081000C032090400000102020100052400100199
:100820000424020205240600010524010001070535
:10083000810308000209040100020A000000070504
:10084000020240000007058202400000340343001A
:10085000440043002000520053002D0032003300BA
:100860003200200045006D0075006C0061007400CE
:1008700069006F006E002000440065006D006F008D
:1008800034034D006900630072006F00630068006C
:1008900069007000200054006500630068006E006D
:1008A0006F006C006F0067007900200049006E0047
:1008B00063002E001201000202000008D8040A00A2
:0B08C000000101020001040309040014
:1008CC0004013205D8A411D0040130511F0B0009CA
:1008DC00D8A40BD000016B8F030E04013119D8A4DE
:1008EC0002D0010E01D0000E496E04013251D8A481
:1008FC001200040130511F0B020AD8A4120004018B
:10090C0034510F0B0009D8B41200040134510F0BF1
:10091C00166E030E16601200200E5118D8A4120089
:10092C0000016B8F040134BF1BD0040134510F0B39
:10093C00166E1650020D740EF324D96E000EF420B0
:10094C00DA6EDECF1AF0DDCF1BF0040134510F0B41
:10095C00166E1650010D810EF324D96E000E1AD0AE
:10096C00040134510F0B166E1650020D6E0EF3244B
:10097C00D96E000EF420DA6EDECF1AF0DDCF1BF04C
:10098C00040134510F0B166E1650010D840EF32416
:10099C00D96E000EF420DA6EDF50196E19B006D045
:1009AC00FB0E1A141A6EFF0E1B1404D0040E1A1030
:1009BC001A6E1B501B6E040134BF0BD00401345152
:1009CC000F0B166E1650020D740EF324D96E000E1A
:1009DC000AD0040134510F0B166E1650020D6E0E18
:1009EC00F324D96E000EF420DA6E1AC0DEFF1BC0A1
:1009FC00DDFF030E04013119D8A42FD01AC0D9FF82
:100A0C001BC0DAFFDFAE1CD0040134BF0BD00401D5
:100A1C0034510F0B166E1650010D810EF324D96E46
:100A2C00000E0AD0040134510F0B166E1650010D36
:100A3C00840EF324D96E000EF420DA6E0001DF82EE
:100A4C001AC0D9FF1BC0DAFF000EDB841AC0D9FF15
:100A5C001BC0DAFF000EDB8E1200040E1A181A6E81
:100A6C001B501B6E1AC0D9FF1BC0DAFFDFAE1BD0A8
:100A7C001AC0D9FF1BC0DAFF7F0EDF161AC0D9FFD0
:100A8C001BC0DAFF000EDB8C000E0F6E050E0E6E17
:100A9C001AC010F01BC011F0000E136E020E126E75
:100AAC00E8EC10F006D01AC0D9FF1BC0DAFF000E1C
:100ABC00DB8C040E1A181A6E1B501B6E19B206D062
:100ACC001AC0D9FF1BC0DAFFDFAE31D0040134BF2E
:100ADC000BD0040134510F0B166E1650010D810E04
:100AEC00F324D96E000E0AD0040134510F0B166E8C
:100AFC001650010D840EF324D96E000EF420DA6E1C
:100B0C000001DF921AC0D9FF1BC0DAFF3B0EDF16C3
:100B1C00000E0F6E050E0E6E1AC010F01BC011F0F9
:100B2C00000E136E020E126EE8EC10F006D01AC016
:100B3C00D9FF1BC0DAFF3B0EDF16040134510F0B3B
:100B4C00166E1650010D700EF324176E0F0EF42056
:100B5C00186E17C0D9FF18C0DAFFFE0EDF16120090
:100B6C00A09A000E6A6E000E686E000E706E710E0A
:100B7C000001D26F0F0E0001D36F000E0001D56F74
:100B8C00000ED46F000E0001D76F020ED66F51EC21
:100B9C0012F0160E6F6E9F0E6B6E7B0E696E000E52
:100BAC000001DA6F0B0E0001DA6501D010D00001E4
:100BBC00DA51040D000EF324D96E040EF420DA6E13
:100BCC00DE6ADE6ADE6ADD6A0001DA2BEBD76D8C39
:100BDC00000E6E6E6D986D9C6896000E00016B6F2A
:100BEC00000E0001636F000E0001656F000E646F54
:100BFC0068B6F2D7010E446E010E436E000E426EC3
:100C0C00000E416E000E00018B6F000E0001DA6FBA
:100C1C00020E0001DA6501D033D00001DA51020D69
:100C2C006E0EF324D96E000EF420DA6E000EDE6E1A
:100C3C00000EDD6E0001DA51020D740EF324D96E34
:100C4C00000EF420DA6E000EDE6E000EDD6E00017A
:100C5C00DA51010D840EF324D96E000EF420DA6EF5
:100C6C00000EDF6E0001DA51010D810EF324D96EF6
:100C7C00000EF420DA6E000EDF6E0001DA2BC8D7FE
:100C8C00080E00016E6F040E00016F6F160E706E71
:100C9C00040E0401036F300E026F080E0401016F85
:100CAC00040E0401006F0401008F000E556E000E3F
:100CBC002C6E000E2D6E000E2E6E000E2F6E000E82
:100CCC0000018A6F000E516E1200A09A000E6A6E1F
:100CDC00000E686E000E706E710E016E0F0E026EBD
:100CEC00000E046E000E036E000E066E020E056EF4
:100CFC00B4EC12F0160E6F6E9F0E6B6E7B0E696E5F
:100D0C00000E096E0B0E096401D00ED00950040DB3
:100D1C00000EF324D96E040EF420DA6EDE6ADE6A5D
:100D2C00DE6ADD6A092AEED76D8C000E6E6E6D9848
:100D3C006D9C6896000E00016B6F000E0001636FD6
:100D4C00000E0001656F000E646F68B6F2D7010EDD
:100D5C00446E010E436E000E426E000E416E000E8C
:100D6C0000018B6F000E096E020E096401D02ED0AB
:100D7C000950020D6E0EF324D96E000EF420DA6EBB
:100D8C00000EDE6E000EDD6E0950020D740EF324A3
:100D9C00D96E000EF420DA6E000EDE6E000EDD6EE3
:100DAC000950010D840EF324D96E000EF420DA6E76
:100DBC00000EDF6E0950010D810EF324D96E000E6A
:100DCC00F420DA6E000EDF6E092ACED7080E000171
:100DDC006E6F040E00016F6F160E706E040E040120
:100DEC00036F300E026F080E0401016F040E040134
:100DFC00006F0401008F000E556E000E2C6E000E5D
:100E0C002D6E000E2E6E000E2F6E000E00018A6FDE
:100E1C00000E516E120020EE01F03950D9263A50D6
:100E2C00DA22DF50136E13500001645D000E655919
:100E3C00D8A064C013F013500001645F000E655B12
:100E4C00000E126E12D01250010D380EF324D96E12
:100E5C00040EF420DA6E60C0E1FF61C0E2FFDFCF68
:100E6C00E7FF0001604B612B122A1350125CD8A0D3
:100E7C00EAD70001645100016511D8B432D020EEDC
:100E8C0001F03750D9263850DA22080EDF6E20EEEA
:100E9C0002F03750D9263850DA22380EDE6E040EA6
:100EAC00DD6E39C0D9FF3AC0DAFFDFBC0DD037C0D8
:100EBC00D9FF38C0DAFF480EDF6E37C0D9FF38C013
:100ECC00DAFF000EDB8E120037C0D9FF38C0DAFF14
:100EDC00080EDF6E37C0D9FF38C0DAFF000EDB8E8C
:100EEC00120020EE01F03750D9263850DA22080EC5
:100EFC00DF6E20EE02F03750D9263850DA22300E51
:100F0C00DE6E040EDD6E37C0D9FF38C0DAFF040E7A
:100F1C00DF6E37C0D9FF38C0DAFF000EDB8E000160
:100F2C00665100016711D8B40ED020EE66F001D8DE
:100F3C000AD00500FA6EDE50FD6EDE50FE6EF850E3
:100F4C00FF6EFA5012000001639F4550D8A41200A6
:100F5C00B0EC0DF01200800E04013019D8A4120070
:100F6C00C00E00016B6F89D0B40E0001686F080EC3
:100F7C000001696F000E00016D6F120E6C6F120094
:100F8C0004013251D8A444D004013251020D070E91
:100F9C00F324F66E080EF420F76E0900F5CF68F016
:100FAC000A00F5CF69F0020E00016825016E000EF3
:100FBC0000016921026E01C0F6FF02C0F7FFF86A5A
:100FCC00070EF76403D00800F55005D0F6CFE9FF03
:100FDC00F7CFEAFFEF5000016C6F030E000168259C
:100FEC00016E000E00016921026E01C0F6FF02C005
:100FFC00F7FFF86A070EF76403D00800F55005D028
:10100C00F6CFE9FFF7CFEAFFEF5000016D6F12004A
:10101C00000E00016B6F1200030E0401326125D02B
:10102C0004013251020D010EF324F66E080EF42069
:10103C00F76E0900F5CF68F00A00F5CF69F068C0CB
:10104C00F6FF69C0F7FFF86A070EF76403D00800D3
:10105C00F55005D0F6CFE9FFF7CFEAFFEF50016E60
:10106C00015000016C6F6D6B1200000E00016B6F74
:10107C001200000E00016B6F120004013351010AC3
:10108C00D8B472D7030AD8B47BD7010AD8B4C4D762
:10109C00F0D7A09A33503410D8B408D033C0D9FF4D
:1010AC0034C0DAFFDFAE02D0A08A1200030E501853
:1010BC00D8A402D0000E506E5050D8A402D0A08AF2
:1010CC001200020E5018D8A416D0010E0001D26FD7
:1010DC00000E0001D36F000E0001D46F000E000152
:1010EC00D56F020EEBEC08F0D2C033F0D3C034F065
:1010FC00030E506E68D05004D8A465D0400E4064E6
:10110C0004D0400E0001DE6F02D040C0DEF00001C2
:10111C00DE5100084024406E000E00017E6F050E6B
:10112C0000017F6FDEC0DDF03F50D8B412D028D064
:10113C0030C0D9FF31C0DAFF7EC0E1FF7FC0E2FFD3
:10114C00DFCFE7FF00017E4B7F2B304A312A0001B5
:10115C00DD070001DD510001D8B417D0E9D730C04C
:10116C00D9FF31C0DAFF7EC0E1FF7FC0E2FFDFCFE5
:10117C00E7FF00017E4B7F2B304A312A0001DD074F
:10118C000001DD510001D8A4EAD74050D8A409D001
:10119C00400E0001DE19D8A402D0020E01D0030EBD
:1011AC00506E010E0001D26F000E0001D36F050EC0
:1011BC000001D46FDEC0D5F0020EEBEC08F0D2C00B
:1011CC0033F0D3C034F0A08A12000001DA6F0001B2
:1011DC00D2510001D8B408D00001DA51020D6E0EC4
:1011EC00F324D96E000E07D00001DA51020D740EF3
:1011FC00F324D96E000EF420DA6EDECFDBF0DDCFF7
:10120C00DCF00001DB510001DC11D8A407D0000E8A
:10121C000001D26F000E0001D36F1200000120EE0E
:10122C0002F0DB51D926DC51DA22D3C0DEFFD4C068
:10123C00DDFF000120EE01F0DB51D926DC51DA2272
:10124C00D5C0DFFFDBC0D9FFDCC0DAFF400EDF16F4
:10125C00DBC0D9FFDCC0DAFF000EDB86DBC0D9FFB8
:10126C00DCC0DAFF000EDB8E0001D2510001D8B4D5
:10127C001ED00001DA51020D6E0EF324D96E000E51
:10128C00F420DA6EDECFD6F0DDCFD7F0040E0001FD
:10129C00D6190001D86F0001D7510001D96F000198
:1012AC00DA51020D6E0EF324D96E000E1DD0000122
:1012BC00DA51020D740EF324D96E000EF420DA6E9E
:1012CC00DECFD6F0DDCFD7F0040E0001D619000129
:1012DC00D86F0001D7510001D96F0001DA51020D0E
:1012EC00740EF324D96E000EF420DA6ED8C0DEFF33
:1012FC00D9C0DDFFDBC0D2F0DCC0D3F0120051044A
:10130C00D8B46DBA06D0000E686E69806988020E7A
:10131C00516E68B469A403D0689436EC12F06DA2D7
:10132C0002D0A19A120068B069A006D06BEC06F04E
:10133C00A08A040E516E689068B869A802D09CEC23
:10134C0012F068AC1AD069AC0ED0000E0F6E730E92
:10135C000E6E000E106E000E116E000E136E010E4E
:10136C00126EE8EC10F0689CCAEC12F04650D8A44F
:10137C0046064650D8B4B0EC0DF068BA69AA02D053
:10138C00DCEC11F068B269A20FD07F0E0F6E0E6804
:10139C00000E106E000E116E000E136E010E126E0A
:1013AC00E8EC10F0000E6A6E040E516002D0A19AA7
:1013BC00120069A639D0000E1D6E030E1D6401D0FB
:1013CC0033D068A631D06CCF54F05430E832E832C8
:1013DC000F0B486E689654B407D04850010D810E1F
:1013EC00F324D96E000E06D04850010D840EF32460
:1013FC00D96E000EF420DA6E0001DF704850D8A4CC
:10140C0003D06FEC0FF00ED0000E0F6E720E0E6E3E
:10141C00540E106E000E116E000E136E000E126E36
:10142C00E8EC10F01D2AC9D7A19A1200096E0150E0
:10143C00D8B407D00950020D6E0EF324D96E000EED
:10144C0006D00950020D740EF324D96E000EF42050
:10145C00DA6EDECF0AF0DDCF0BF00A500B10D8A4F9
:10146C0005D0000E016E000E026E120020EE02F08E
:10147C000A50D9260B50DA2202C0DEFF03C0DDFF72
:10148C0020EE01F00A50D9260B50DA2204C0DFFFFF
:10149C000AC0D9FF0BC0DAFF400EDF160AC0D9FF15
:1014AC000BC0DAFF000EDB860AC0D9FF0BC0DAFFD7
:1014BC00000EDB8E0150D8B418D00950020D6E0E00
:1014CC00F324D96E000EF420DA6EDECF05F0DDCFFA
:1014DC0006F0040E0518076E0650086E0950020D32
:1014EC006E0EF324D96E000E17D00950020D740E37
:1014FC00F324D96E000EF420DA6EDECF05F0DDCFCA
:10150C0006F0040E0518076E0650086E0950020D01
:10151C00740EF324D96E000EF420DA6E07C0DEFFD1
:10152C0008C0DDFF0AC001F00BC002F012006EC053
:10153C00D9FF6FC0DAFF0001000EDFBC010E126E86
:10154C00040E00016E1900016E6F00016F51000155
:10155C006F6F080E5118D8A40BD0040132517F0BB9
:10156C006E6E6E50D8B402D0100E01D0040E516EB7
:10157C004A04D8A43BD0000120EE02F06E51D926CB
:10158C006F51DA22380EDE6E040EDD6E7CEC0CF040
:10159C00020E4B18D8A40DD06EC0D9FF6FC0DAFF65
:1015AC00040EDF6E6EC0D9FF6FC0DAFF000EDB8E4B
:1015BC0012001250D8A40DD06EC0D9FF6FC0DAFF44
:1015CC00480EDF6E6EC0D9FF6FC0DAFF000EDB8EE7
:1015DC0012006EC0D9FF6FC0DAFF080EDF6E6EC04E
:1015EC00D9FF6FC0DAFF000EDB8E1200000163AF73
:1015FC0016D00001665100016711D8B40ED020EE50
:10160C0066F001D80AD00500FA6EDE50FD6EDE5091
:10161C00FE6EF850FF6EFA5012000001639F000E30
:10162C004A6E12006D9800016BBF39D0000163AF98
:10163C000BD0020E4A6E4150D8B420EC0FF0000EC5
:10164C00436E000E446E120020EE01F03750D92686
:10165C003850DA22080EDF6E20EE02F03750D92611
:10166C003850DA22300EDE6E040EDD6E37C0D9FF34
:10167C0038C0DAFF0C0EDF6E37C0D9FF38C0DAFF86
:10168C00000EDB8E6EC0D9FF6FC0DAFF040EDF6E6A
:10169C006EC0D9FF6FC0DAFF000EDB8E12000401A2
:1016AC0030AF10D0010E4A6E4250D8B420EC0FF07F
:1016BC00000E436E000E446E4550D8A41200B0ECE0
:1016CC000DF01200020E4A6E20EE01F03750D926B2
:1016DC003850DA22080EDF6E20EE02F03750D92691
:1016EC003850DA22300EDE6E040EDD6E37C0D9FFB4
:1016FC0038C0DAFF040EDF6E37C0D9FF38C0DAFF0E
:10170C00000EDB8E000E436E000E446E4550D8A4C6
:10171C001200B0EC0DF0120004013039E832030B6A
:10172C000009D8A412004FD000016B8F080E516E27
:10173C001200B1EC07F012000BEC0CF01200550E7D
:10174C000001686F000E0001696F00016B81010ED2
:10175C0000016C6F00016B8F120070EC0EF0120028
:10176C0066EC04F0120004013451010D520EF32406
:10177C000001686F000EF4200001696F00016B819D
:10178C00010E00016C6F00016B8F120000016B8F5A
:10179C0004013451010D520EF324D96E000EF420C5
:1017AC00DA6E32C4DFFF1200000E0F6E020E0E6EE8
:1017BC00000E106E000E116E000E136E000E126EE7
:1017CC00E8EC10F0120004013151000AD8B4C5D76E
:1017DC00010AD8B4C5D7020AD8B4C2D7060AD8B4FD
:1017EC00A3D7030AD8B4A5D7010AD8B4DDD70F0AFA
:1017FC00D8B4A5D7010AD8B49FD7030AD8B4B3D7A5
:10180C00010AD8B4C3D7070A120000016B8F710EFE
:10181C00016E0F0E026E000E046E000E036E000EB3
:10182C00066E020E056EB4EC12F0000E016E040E84
:10183C00026E000E046E000E036E000E066E300E6D
:10184C00056EB4EC12F06D8C000E166E020E166462
:10185C0001D016D01650010D840EF324D96E000E53
:10186C00F420DA6E000EDF6E1650010D810EF3249B
:10187C00D96E000EF420DA6E000EDF6E162AE6D753
:10188C00520E016E000E026E000E046E000E036E00
:10189C00000E066E020E056EB4EC12F06D9C080E76
:1018AC0000016E6F040E00016F6F000E396E040E96
:1018BC003A6E39C037F03AC038F032C455F0555052
:1018CC00D8A403D0100E516E1200000E0F6E010E34
:1018DC000E6E550E106E000E116E000E136E010E74
:1018EC00126EE8EC10F0200E516E1200080E016E14
:1018FC0000016D5111E1080E00016C5DD8B00CD0E7
:10190C006CC001F04B50D8A402D0010E04D04B0493
:10191C00D8A402D0020E4B6E015000016C5F000E79
:10192C006D5B000120EE01F06E51D9266F51DA2269
:10193C0001C0DFFF380E356E040E366E00016BA150
:10194C001CD03AD068C0F6FF69C0F7FFF86A35C002
:10195C00D9FF36C0DAFF070EF76403D00800F55044
:10196C0005D0F6CFE9FFF7CFEAFFEF50DF6E0001AD
:10197C00684B692B354A362A01060150D8B412003F
:10198C00E1D768C0F6FF69C0F7FFF86A35C0D9FF28
:10199C0036C0DAFF070EF76403D00800F55005D007
:1019AC00F6CFE9FFF7CFEAFFEF50DF6E0001684B8F
:1019BC00692B354A362A01060150D8B41200E1D7FA
:1019CC00040130511F0BE806D8A412000401303971
:1019DC00E832030BE806D8A4120004013451D8B441
:1019EC0045D004013405D8A4120040D0B20E000139
:1019FC00686F000E0001696F000E00016D6F080E1C
:101A0C006C6F00016B8100016B8F1200B20E000134
:101A1C00686F000E0001696F00016B8F120036C4F5
:101A2C0064F037C465F0A80E0001606F000E000171
:101A3C00616F880E0001666F220E0001676F000156
:101A4C00638F1200BA0E0001686F000E0001696FFF
:101A5C00000E00016D6F070E6C6FC10E00016B6FF5
:101A6C00120032C43EF000016B8F120004013151A0
:101A7C00000AD8B4BBD7010AD8B4C8D7210AD8B445
:101A8C00CED7010AD8B4DED7030AD8A41200E9D7FE
:101A9C00200E516001D012006DB212004C50D8A42F
:101AAC0013D0000E0001DD6F010E0001DE6F400E41
:101ABC000001DF6F12EC0EF04E6E4E50D8B404D015
:101ACC00010E4C6E000E4D6E4C50D8A4ACA212D030
:101ADC004D50010D000EF324D96E010EF420DA6E78
:101AEC00DF5018EC13F04D2A4E504D18D8A402D0EC
:101AFC00000E4C6E9EAA19D03F0E4F6016D04F5060
:101B0C00010D400EF324D96E010EF420DA6EEDECCB
:101B1C0012F0DF6E4F2A4F50010D400EF324D96E98
:101B2C00010EF420DA6E000EDF6E5050D8A40FD0E8
:101B3C004F50D8B40CD0400E0001D26F010E0001F2
:101B4C00D36F4FC0D4F0DDEC12F0000E4F6E4FECA3
:101B5C0008F012004450D8A41200010E446E4350F9
:101B6C00D8A41200010E436E020E4A18D8A416D047
:101B7C00000120EE01F06E51D9266F51DA22000ED1
:101B8C00DF6E6EC0D9FF6FC0DAFF480EDF6E6EC01D
:101B9C00D9FF6FC0DAFF000EDB8E12004A04D8A406
:101BAC001200000E476E20EE01F03950D9263A5043
:101BBC00DA22080EDF6E20EE02F03950D9263A50A8
:101BCC00DA22300EDE6E040EDD6E39C0D9FF3AC05B
:101BDC00DAFF040EDF6E39C0D9FF3AC0DAFF000E0F
:101BEC00DB8E010E476E20EE01F03750D9263850AF
:101BFC00DA22080EDF6E20EE02F03750D92638506C
:101C0C00DA22300EDE6E040EDD6E37C0D9FF38C01E
:101C1C00DAFF800EDF6E1200000E0001896F0001EA
:101C2C00875100018811D8B407D087C0D9FF88C06C
:101C3C00DAFF0001DFBE4BD0000120EE01F087512E
:101C4C00D9268851DA220001DF51DE5CD8B00AD0E7
:101C5C00000120EE01F08751D9268851DA22DF509D
:101C6C000001DF6F000E0001896F18D0000189514F
:101C7C00010D400EF324D96E050EF420DA6E00012E
:101C8C008951010DF3500001DD25E16EF450000186
:101C9C00DE21E26EDFCFE7FF0001892B0001DF516F
:101CAC000001895DD8A0E2D7000E0001D26F400E72
:101CBC000001D36F050E0001D46F400E0001D56FEB
:101CCC00020EEBEC08F0D2C087F0D3C088F0000114
:101CDC0089511200000E0401386F000E0401396F97
:101CEC003BD000016B8F4904D8A442D00401388347
:101CFC003FD000016B8F3CD000016B8F040134BFCF
:101D0C000BD0040134510F0B016E0150020D740EF7
:101D1C00F324D96E000E0AD0040134510F0B016E5E
:101D2C000150020D6E0EF324D96E000EF420DA6E03
:101D3C00DECF02F0DDCF03F002C0D9FF03C0DAFF23
:101D4C00DFAE16D002C0D9FF03C0DAFFDFA410D07B
:101D5C00010E0401386F0CD0040130511F0B000A26
:101D6C00D8B4BFD7010AD8B4C4D7030AD8B4C4D7DF
:101D7C0000016BAF1200380E0001686F040E0001F9
:101D8C00696F00016B81020E00016C6F1200000E76
:101D9C004B6E000E456E000E426E000E416E000E34
:101DAC00476E000E4A6E6EC0D9FF6FC0DAFF7F0E11
:101DBC00DF16040E00016E1900016E6F00016F51E9
:101DCC0000016F6F6EC0D9FF6FC0DAFF7F0EDF1698
:101DDC00040E00016E1900016E6F00016F510001BD
:101DEC006F6F37C0D9FF38C0DAFF7F0EDF16000ED9
:101DFC0000016B6F000E00016D6F000E6C6F000E1A
:101E0C000001636F000E0001656F000E646F92ECB1
:101E1C000BF0000E0F6E030E0E6E000E106E000E09
:101E2C00116E000E136E000E126EE8EC10F018EC32
:101E3C000BF01200000E426E000E416E020E4A189C
:101E4C00D8A41FD020EE01F03750D9263850DA2212
:101E5C00080EDF6E20EE02F03750D9263850DA2209
:101E6C00380EDE6E040EDD6E37C0D9FF38C0DAFFD7
:101E7C00480EDF6E37C0D9FF38C0DAFF000EDB8E9C
:101E8C00120000016C510401365D00016D5104011A
:101E9C003759D8B004D036C46CF037C46DF07CEC34
:101EAC000CF0000120EE02F06E51D9266F51DA22AF
:101EBC00380EDE6E040EDD6E6EC0D9FF6FC0DAFF19
:101ECC00480EDF6E6EC0D9FF6FC0DAFF000EDB8EDE
:101EDC0012002D0E466E54C01CF0FD0E1C16D8A41C
:101EEC003BD054C01CF0D8901C323F0E1C161C501A
:101EFC00040D000EF324396E040EF4203A6E39C032
:101F0C0037F03AC038F0040E3718376E3850386E48
:101F1C0039C0D9FF3AC0DAFFDF30E8320F0B0D0AB7
:101F2C00D8A417D0300E016E040E026E20EE02F013
:101F3C003950D9263A50DA22DECF03F0DDCF04F047
:101F4C00000E066E080E056EBAEC11F0CDEC0EF01C
:101F5C00120016EC11F012005450FD0B040AD8A418
:101F6C0012009DEC0AF01200066E000E076E040EB5
:101F7C00086E0150026E036AD89002360336065082
:101F8C00046E056AD89004360536D89004360536AA
:101F9C000250042603500522D89004360536D890FA
:101FAC0004360536045007260550082207C0D9FF11
:101FBC0008C0DAFFDF9E0150D8A407D00650020DEE
:101FCC00740EF324D96E000E06D00650020D6E0E60
:101FDC00F324D96E000EF420DA6E07C0DEFF08C0C1
:101FEC00DDFF07C0D9FF08C0DAFFDF9C20EE04F04C
:101FFC000750D9260850DA22DF8C1200000E096E29
:10200C00000E0A6E000E0B6E000E0C6E05500610C4
:10201C0007100810D8B42AD0010E0D6E06D0D89037
:10202C0005360636073608360D2A08AEF8D7D8908E
:10203C0009360A360B360C360550015C0650025830
:10204C000750035808500458D8A009D00550015E19
:10205C000650025A0750035A0850045A0980D89067
:10206C0008320732063205320D2EE1D709C001F0D5
:10207C000AC002F00BC003F00CC004F01200060002
:10208C00FACF1EF0FBCF1FF0E9CF20F0EACF21F002
:10209C00E1CF22F0E2CF23F0D9CF24F0DACF25F034
:1020AC00F3CF26F0F4CF27F0F6CF28F0F7CF29F0B6
:1020BC00F8CF2AF0F5CF2BF085EC09F02BC0F5FF0B
:1020CC002AC0F8FF29C0F7FF28C0F6FF27C0F4FF8D
:1020DC0026C0F3FF25C0DAFF24C0D9FF23C0E2FFDE
:1020EC0022C0E1FF21C0EAFF20C0E9FF1FC0FBFFB7
:1020FC001EC0FAFF58921100800E0001BA6F250E17
:10210C00BB6F000EBC6F000EBD6F000E0001BE6FEA
:10211C00000E0001BF6F080E0001C06F000E000121
:10212C00896F1A0E096E010EFDEC11F01E0E096E70
:10213C00020EFDEC11F0000E016E400E026E050E4B
:10214C00036E400E046E020E1CEC0AF001C087F008
:10215C0002C088F0000E336E000E346E000E506E0E
:10216C00120082EC10F0000E0001BE6F080E000190
:10217C00C06F000E0001BF6F800E0001BA6F250EFC
:10218C00BB6F000EBC6F000EBD6F04EC13F0000EA5
:10219C000D6E3F0E0D6401D00CD00D50010D400E94
:1021AC00F324D96E010EF420DA6E000EDF6E0D2AC8
:1021BC00F0D7000E4F6E000E4E6E000E3B6E000EF2
:1021CC003C6E120006D0B7EC10F01200E6EC0CF0EE
:1021DC0012000EC014F00FC015F01550000AD8B440
:1021EC0004D07F0AD8A4120018D01450010AD8B415
:1021FC00EAD7030AD8B41200010AD8B4E7D7060A02
:10220C00D8B41200770AD8B41200010AD8B412005C
:10221C00070AD8B41200010A12001450FF0A120067
:10222C00020E4A18D8A403D011EC07F01200000ECD
:10223C004A6E4750D8A41FD020EE01F03750D92653
:10224C003850DA22080EDF6E20EE02F03750D92615
:10225C003850DA22300EDE6E040EDD6E37C0D9FF38
:10226C0038C0DAFF0C0EDF6E37C0D9FF38C0DAFF8A
:10227C00000EDB8E1200000E476E1200A8C0BAF0E2
:10228C00A9C0BBF0AAC0BCF0ABC0BDF0480E016E3B
:10229C00E80E026E010E036E000E046EBAC005F05D
:1022AC00BBC006F0BCC007F0BDC008F004EC10F0D9
:1022BC00FF0E01240E6EFF0E02200F6EFF0E032088
:1022CC00106EFF0E0420116E0EC0AFFF0FC0B0FFDA
:1022DC0004EC13F012003A0EF66E260EF76E000E9A
:1022EC00F86E0900F5CF56F00900F5CF57F001EE66
:1022FC0000F0800EEE6AE806FDE100EE60F0610E83
:10230C00EE6AE806FDE100EE2CF02A0EEE6AE80615
:10231C00FDE158905892000EF86E000196EF11F006
:10232C006BEC12F01A0E0001E16FF80EE82EFED7DE
:10233C00E12FFCD700F0000E0001E26F0CD0F9EC9D
:10234C0012F053EF00F01EEC13F053EF00F0F9EC29
:10235C0012F053EF00F00001E251000AD8B4EFD7AD
:10236C00010AD8B4F0D7F3D703C009F004C00AF0BF
:10237C0001C007F002C008F010D009C0D9FF0AC094
:10238C00DAFFDF500B6E094A0A2A07C0D9FF08C0D2
:10239C00DAFF0BC0DFFF074A082A0506D8A006069D
:1023AC000528EBE10628D8B41200E7D770A01DD0A1
:1023BC0039C0D9FF3AC0DAFF800EDE18D8A414D089
:1023CC006EC0D9FF6FC0DAFF840EDE18D8A40CD013
:1023DC0039C0D9FF3AC0DAFF0C0EDF6E39C0D9FF15
:1023EC003AC0DAFF000EDB8E7090689A12000C6E09
:1023FC0009A405D0000E016E0C50BAEC0FF009A226
:10240C0005D0010E016E0C50BAEC0FF00C50010D02
:10241C00700EF3240A6E0F0EF4200B6E0AC0D9FF57
:10242C000BC0DAFF09C0DFFF12000001D26F0ED023
:10243C0092680F0E936E800E946E000E896EF00EE5
:10244C008A6E800E8B6E0F0EC11212000001D251DB
:10245C00000AD8B4EDD7010AD8B41200030A12004E
:10246C00000E00018B6F000E0F6E740E0E6E000EC0
:10247C00106E000E116E000E136E000E126EE8EC54
:10248C0010F06D92699401D0689468B4FDD7000E79
:10249C0000018A6F1200D2C0D8F0D3C0D9F009D095
:1024AC00D8C0D9FFD9C0DAFFD4C0DFFF0001D84BA8
:1024BC00D92B0001D607D8A0D7070001D629F0E107
:1024CC000001D729D8B41200EBD7D388D38AD38C88
:1024DC00D382D390DF0E926E0F0E936E800E946E9D
:1024EC00000E896EF00E8A6E800E8B6E0F0EC16E12
:1024FC00C290F28C9D9CD09EF29E12005150D8A49A
:10250C001200000E6D6E000E696E160E6F6E9F0E31
:10251C006B6E7B0E696ED08EA28AA08AF28E01D071
:10252C006D866DA6FDD7010E516E120069846898F8
:10253C006D82010E00018B6F000E00018A6F000E80
:10254C000F6E750E0E6E000E106E000E116E000EDC
:10255C00136E000E126EE8EC10F0120001C007F0C2
:10256C0002C008F008D007C0D9FF08C0DAFF03C0CA
:10257C00DFFF074A082A0506D8A006060528F3E15E
:10258C000628D8B41200EFD7010E2C26000E2D22EF
:10259C002E222F2200018B51D8A4120000018A2B6D
:1025AC0000018A51D8A4120000018A691200A09A75
:1025BC005050D8A40AD0D2C030F0D3C031F0D4C01F
:1025CC0040F0010E3F6E010E506EA08A1200ABA2BD
:1025DC0005D0AB98AECFD2F0AB8802D0AECFD2F054
:1025EC000001D2511200F28E000E1BEC12F0B6EC70
:1025FC0005F084EC12F00FEC13F0FDD7AC9CAC980A
:10260C00AC8AAB9CAB88948E949CAB8EAECF01F015
:10261C001200200E516001D012006DB212004EEC6F
:10262C000DF012000001D26FD2C0ADFF12009C0061
:02263C00FFD7C6
:020000040020DA
:08000000FFFFFFFFFFFFFFFF00
:020000040030CA
:0E000000340B3F1EFF8181FF0FC00FE00F4049
:00000001FF
